:100000000C9471010C9499010C9499010C94990130
:100010000C9499010C9499010C9499010C949901F8
:100020000C9499010C9499010C9499010C949901E8
:100030000C9499010C9499010C9499010C949901D8
:100040000C9481060C9499010C94F1060C94CB0647
:100050000C9499010C9499010C9499010C949901B8
:100060000C9423070C94990107634236B79BD8A7D9
:100070001A39685618AEBAAB558C1D3CB7CC5763CD
:10008000BD6DEDFD753EF6177231BF000000803F7B
:1000900008000000BE922449123EABAAAA2ABECD97
:1000A000CCCC4C3E00000080BEABAAAAAA3E000009
:1000B0000000BF000000803F000000000008417801
:1000C000D3BB4387D1133D190E3CC3BD4282AD2B38
:1000D0003E68EC8276BED98FE1A93E4C80EFFFBE30
:1000E00001C4FF7F3F00000000000A2D20496E6917
:1000F0007469616C697A696E6720424D45363830A3
:100100002073656E736F72203220617420616464A5
:1001100072657373204D4C5839303631340A002DD6
:100120002053657474696E6720676173206D656123
:10013000737572656D656E7420746F20333230C2D2
:10014000B04320666F72203135306D730A002D2068
:1001500053657474696E67204949522066696C74EE
:10016000657220746F20612076616C7565206F6602
:1001700020342073616D706C65730A002D20536507
:100180007474696E6720313678206F76657273619A
:100190006D706C696E6720666F7220616C6C207385
:1001A000656E736F72730A002D2020556E61626C4C
:1001B0006520746F2066696E6420424D4536383084
:1001C0002E20547279696E6720616761696E2069BB
:1001D0006E2035207365636F6E64732E0A002D20C8
:1001E000496E697469616C697A696E6720424D4530
:1001F0003638302073656E736F720A005374617203
:1002000074696E672049324344656D6F206578617B
:100210006D706C652070726F6772616D20666F72B1
:1002200020424D453638300A00E284A60A3D3D3D65
:100230003D203D3D3D3D3D3D203D3D3D3D3D3D2045
:100240003D3D3D3D3D3D3D3D3D203D3D3D3D3D3DFB
:100250003D203D3D3D3D3D3D0A000A4C6F6F702005
:1002600054656D70C2B0432048756D696425205097
:100270007265737320685061202020416C74206D7A
:1002800020416972206D0000000000250028002B2D
:1002900000000000002300260029000404040404D8
:1002A0000404040202020202020303030303030222
:1002B00002030102040810204080010204081020FB
:1002C00001020408102040804000000009000302E1
:1002D000000004050800000000000000000000000D
:1002E0004E0811241FBECFEFD8E0DEBFCDBF23E004
:1002F000ACEDB1E001C01D92AA3FB207E1F711E0F9
:10030000A0E0B1E0E4EDFEE302C005900D92AC3D4B
:10031000B107D9F711E0C1E7D1E004C02197FE0190
:100320000E943F1FC037D107C9F70E9491080C9463
:10033000681F0C9400008CBD9DBD08959091A20291
:1003400081E0913208F043C080917E028111FCCFA0
:100350008091A10222E020937E0221E020937D0281
:100360002FEF20937C0221E832E030937B02209330
:100370007A0210927902909378021092770290910B
:100380007702880F892B80937702809176028130E3
:1003900029F510927602809177028093BB008091BC
:1003A000BC0083FDF8CF85EC8093BC0080917E0279
:1003B0008230E1F380917C028F3F91F080917C024A
:1003C000803281F080917C02803371F084E0109261
:1003D00080021092A20210927F02089585EEE4CF6F
:1003E00080E0F5CF82E0F3CF83E0F1CF809154023B
:1003F00090915502891B990B0895843081F028F45F
:100400008230E9F08330F9F00895883071F0893056
:1004100091F08530B9F4809180008F7D03C0809188
:1004200080008F778093800008958091B0008F774F
:100430008093B00008958091B0008F7DF9CF84B58E
:100440008F7784BD089584B58F7DFBCFCF93DF93E5
:10045000282F30E0F901E753FD4F8491F901EE5464
:10046000FD4FD491F901E556FD4FC491CC23A1F085
:1004700081110E94FD01EC2FF0E0EE0FFF1FEF56FF
:10048000FD4FA591B491EC91ED2381E090E009F44A
:1004900080E0DF91CF91089580E090E0FACF1F9344
:1004A000CF93DF93282F30E0F901E753FD4F84917C
:1004B000F901EE54FD4FD491F901E556FD4FC49179
:1004C000CC23A9F0162F81110E94FD01EC2FF0E042
:1004D000EE0FFF1FE957FD4FA591B4918FB7F89428
:1004E000EC91111108C0D095DE23DC938FBFDF9112
:1004F000CF911F910895DE2BF8CF3FB7F8948091EC
:10050000400290914102A0914202B091430226B56F
:10051000A89B05C02F3F19F00196A11DB11D3FBF3B
:10052000BA2FA92F982F8827BC01CD01620F711D0A
:10053000811D911D43E0660F771F881F991F4A9503
:10054000D1F708958F929F92AF92BF92CF92DF9290
:10055000EF92FF924B015C010E947D026B017C01D6
:100560000E947D026C197D098E099F09683E7340C7
:1005700081059105A8F321E0821A9108A108B1082C
:1005800088EEC80E83E0D81EE11CF11C8114910492
:10059000A104B10429F7FF90EF90DF90CF90BF90B6
:1005A000AF909F908F90089508950895AF92BF9255
:1005B000CF92DF92EF92FF920F931F93CF93DF932F
:1005C0006C017B018B01040F151FEB015E01AE185E
:1005D000BF08C017D10759F06991D601ED91FC9180
:1005E0000190F081E02DC6010995892B79F7C501AD
:1005F000DF91CF911F910F91FF90EF90DF90CF90FF
:10060000BF90AF900895FC01538D448D252F30E0AD
:10061000842F90E0821B930B541710F0CF9608950F
:1006200001970895FC01918D828D981761F0A28D3C
:10063000AE0FBF2FB11D5D968C91928D9F5F9F7302
:10064000928F90E008958FEF9FEF0895FC01918DB8
:10065000828D981731F0828DE80FF11D858D90E025
:1006600008958FEF9FEF0895FC01918D228D892FC2
:1006700090E0805C9F4F821B91098F7399270895AA
:1006800083EA92E00E94340321E0892B09F420E000
:10069000822F089580E090E0892B29F00E9440038A
:1006A00081110C9400000895FC01A48DA80FB92FAE
:1006B000B11DA35ABF4F2C91848D90E001968F738A
:1006C0009927848FA689B7892C93A089B1898C91A9
:1006D000837080648C93938D848D981306C00288F8
:1006E000F389E02D80818F7D80830895EF92FF92C2
:1006F0000F931F93CF93DF93EC0181E0888F9B8D45
:100700008C8D98131AC0E889F989808185FF15C0FE
:100710009FB7F894EE89FF896083E889F989808121
:100720008370806480839FBF81E090E0DF91CF91F0
:100730001F910F91FF90EF900895F62E0B8D10E012
:100740000F5F1F4F0F731127E02E8C8D8E110CC081
:100750000FB607FCFACFE889F989808185FFF5CFCC
:10076000CE010E945403F1CFEB8DEC0FFD2FF11D54
:10077000E35AFF4FF0829FB7F8940B8FEA89FB8909
:1007800080818062CFCF0F931F93CF93DF938C0133
:10079000D0E0C0E0F801EC0FFD1F6491662341F04A
:1007A00083EA92E00E947603892B11F02196F2CF22
:1007B000CE01DF91CF911F910F910895CF93DF93D9
:1007C000EC01888D8823B9F0AA89BB89E889F98969
:1007D0008C9185FD03C0808186FD0DC00FB607FC9E
:1007E000F7CF8C9185FFF2CF808185FFEDCFCE01D1
:1007F0000E945403E9CFDF91CF91089585ED809356
:10080000BC008091BC0084FDFCCF10927E02089554
:1008100020910202260F3327331F21323105ECF4D9
:1008200020917E02FC0190E080E0243069F082E0BB
:100830000895A09102022191AC014E515E4FA40F88
:10084000B52FB11D2C930196861798F38091020263
:10085000680F6093020280E0089581E00895089592
:10086000E091550280915402E81730F4F0E0EA5A22
:10087000FD4F808190E008958FEF9FEF0895909154
:100880005502809154022FEF3FEF981748F4E92F5B
:10089000F0E0EA5AFD4F208130E09F5F90935502CF
:1008A000C9010895CF92DF92EF92FF920F931F93A9
:1008B000CF93DF937C01CB018A0120917F02222319
:1008C00089F0EB016B01C40ED51ECC15DD0569F076
:1008D0006991D701ED91FC910190F081E02DC70164
:1008E0000995F3CF642F0E940804C801DF91CF91CE
:1008F0001F910F91FF90EF90DF90CF900895CF93CD
:10090000DF931F92CDB7DEB7698320917F02222348
:10091000F9F02091A202203258F021E030E0FC01F1
:100920003383228390E080E00F90DF91CF91089590
:1009300080918002E82FF0E0EF57FD4F998190837E
:100940008F5F809380028093A20281E090E0ECCFE1
:1009500061E0CE0101960E940804F7CF90E080E0AC
:10096000089508958EBD00000DB407FEFDCF8EB52D
:100970000895AF92BF92DF92EF92FF920F931F9371
:10098000CF93DF93D82EEB018091BA03882309F12E
:1009900091E090937F028093A102109280021092C6
:1009A000A2026D2D80E493E00E947F04688180E4C0
:1009B00093E00E947F040E949E0184E091E0DF9119
:1009C000CF911F910F91FF90EF90DF90BF90AF906C
:1009D00008958091BE038B01AA24A394B12C8111A8
:1009E00020C081E590E00E949B0160E08091BD0302
:1009F0000E944F028D2D0E94B204FC2E1D2F90915B
:100A00000401802F8F19891730F4F80181918F012B
:100A10000E94B204F4CF61E08091BD030E944F02B6
:100A2000CCCF802F8C1B082E000C990B2091040139
:100A30002817190611F20CF260E08091BD030E94A4
:100A40004F0297E0E92EF12C60E08091BE030E94F6
:100A50004F02B5010E2C01C0660F0A94EAF76D2112
:100A60008091BF030E944F0261E08091BE030E940B
:100A70004F0281E0E81AF10838F787E0E82EF12C00
:100A800060E08091BE030E944F02C5010E2C01C0A0
:100A9000880F0A94EAF7F801608168238091BF0308
:100AA0000E944F0261E08091BE030E944F02F1E07C
:100AB000EF1AF10828F761E08091BD030E944F0210
:100AC0000F5F1F4FAECF90917E029111FCCF91E04E
:100AD00090937E0290937D022FEF20937C0226E577
:100AE00032E030937B0220937A02109279022FEF4A
:100AF000260F209378029093770290917702880FC7
:100B0000892B80937702809176028130E9F41092EC
:100B10007602809177028093BB008091BC0083FDB8
:100B2000F8CF85EC8093BC0080917E028130E1F3A8
:100B300080917902861710F4609179021092550223
:100B400060935402862F089585EEECCFCF92DF920A
:100B5000EF92FF920F931F93CF93DF93EB0190914E
:100B6000BA03992369F121E020937F029093A102B7
:100B7000109280021092A202682F80E493E00E94FB
:100B80007F040E949E0161E08091BA030E94630588
:100B90008091540290915502891B80930301FC2E91
:100BA0008E0190910301802F8F19891708F07AC068
:100BB00080E493E00E943F04F80181938F01F1CF1C
:100BC000182F10688091BE0381111CC081E590E050
:100BD0000E949B0160E08091BD030E944F02812F23
:100BE0000E94B204FC2E8E0190910301802F8F1978
:100BF000891708F052C080E00E94B204F801819386
:100C00008F01F2CF60E08091BD030E944F0287E028
:100C1000E82EF12CCC24C394D12C60E08091BE034B
:100C20000E944F02B6010E2C01C0660F0A94EAF72B
:100C300061238091BF030E944F0261E08091BE0357
:100C40000E944F02F1E0EF1AF10838F7FC2E8E01F6
:100C5000802F8F19082E000C990B20910301281763
:100C60001906D9F0D4F0D8E0C0E0CC0F60E0809154
:100C7000BE030E944F0261E08091BE030E944F02BA
:100C80008091C0030E942602892B09F0C160D150D7
:100C900061F7F801C1938F01DBCF61E08091BD0363
:100CA0000E944F0283E091E0DF91CF911F910F915D
:100CB000FF90EF90DF90CF900895CF93DF931F9236
:100CC000CDB7DEB7BE016F5F7F4F0E94A605898159
:100CD0000F90DF91CF9108958DE10E945D0685FD13
:100CE000FBCF089544E452E0FA0101900020E9F7B7
:100CF000AF014554524064E472E083EA92E00C9400
:100D0000D6021F920F920FB60F9211242F933F938A
:100D10008F939F93AF93BF9380913C0290913D023C
:100D2000A0913E02B0913F0230913B0226E0230F9A
:100D30002D3768F129E8230F0396A11DB11D2093DB
:100D40003B0280933C0290933D02A0933E02B093FD
:100D50003F028091400290914102A0914202B091E5
:100D600043020196A11DB11D809340029093410260
:100D7000A0934202B0934302BF91AF919F918F9194
:100D80003F912F910F900FBE0F901F9018950296D4
:100D9000A11DB11DD4CF1F920F920FB60F92112437
:100DA0002F933F934F935F936F937F938F939F9373
:100DB000AF93BF93EF93FF9383EA92E00E945403B3
:100DC000FF91EF91BF91AF919F918F917F916F9123
:100DD0005F914F913F912F910F900FBE0F901F90F9
:100DE00018951F920F920FB60F9211242F938F9385
:100DF0009F93EF93FF93E091B302F091B40280814F
:100E0000E091B902F091BA0282FD1BC090818091FD
:100E1000BC028F5F8F732091BD02821741F0E09179
:100E2000BC02F0E0ED55FD4F958F8093BC02FF9121
:100E3000EF919F918F912F910F900FBE0F901F9068
:100E400018958081F4CF1F920F920FB60F92112444
:100E50002F933F934F935F936F937F938F939F93C2
:100E6000AF93BF93EF93FF938091B900887F803653
:100E700009F44AC0F0F5883209F4A7C018F58031AA
:100E800009F49BC0B8F4882309F405C1883009F43B
:100E900094C0FF91EF91BF91AF919F918F917F91FE
:100EA0006F915F914F913F912F910F900FBE0F90D7
:100EB0001F901895883109F488C0803251F78093CB
:100EC0007C0214C0803409F4A5C040F48033B9F327
:100ED0008833F9F680937C0285ECBCC0803509F438
:100EE00089C0883509F49EC0883499F60E94FE03B3
:100EF000D0CF883909F494C038F5883729F050F4F8
:100F0000883611F0803729F683E080937E021092B4
:100F1000240257C0883809F483C0803919F080381A
:100F200009F0B7CF80912402803208F079C0E091B7
:100F3000240281E08E0F809324028091BB00F0E0B8
:100F4000EC5FFD4F80833DC0803B39F0E0F4803A98
:100F500009F485C0883A09F09CCF84E080937E0232
:100F60001092030210920202E0912702F0912802EF
:100F700009958091020281110FC081E080930202E5
:100F80001092E20109C0803C09F4A6CF883C09F424
:100F9000A3CF883B09F07DCFE091030281E08E0F63
:100FA00080930302F0E0EE51FE4F80818093BB00FE
:100FB000909103028091020231C080917702809368
:100FC000BB0085EC8093BC0064CF90917902809146
:100FD00078029817B8F580917A0290917B02E0919F
:100FE000790221E02E0F20937902E80FF92FF11DED
:100FF0008081E5CF20917A0230917B02E0917902E5
:1010000081E08E0F809379028091BB00E20FF32F75
:10101000F11D80839091790280917802981788F26F
:1010200085E8D0CF20917A0230917B02E09179025D
:1010300081E08E0F809379028091BB00E20FF32F45
:10104000F11D808380917D02811150CF81E08093DA
:10105000760284EA8093BC0010927E021ACF85EC5F
:101060008093BC0010927E0280912402803230F482
:10107000E0912402F0E0EC5FFD4F108260912402C9
:1010800070E0E0912502F091260284E092E009955B
:1010900010922402FECE10927C0228CFE3EAF2E006
:1010A0001382128288EE93E0A0E0B0E084839583FF
:1010B000A683B78329E831E03183208325EC30E033
:1010C0003587248724EC30E03787268720EC30E012
:1010D000318B208B21EC30E0338B228B22EC30E003
:1010E000358B248B26EC30E0378B268B118E128EBD
:1010F000138E148EE0E4F3E01382128284839583CE
:10110000A683B7838BE991E091838083E3EAF3E0E0
:10111000178A118E108EECE4F3E0178A118E108E70
:101120000895CF93DF93CDB7DEB7C05CD1090FB67A
:10113000F894DEBF0FBECDBF789484B5836084BDC4
:1011400085B5836085BD80916E00816080936E005F
:1011500092E0909381008091810081608093810072
:10116000809180008160809380008091B1008460D4
:101170008093B1008091B00081608093B00086E8D8
:1011800080937A001092C100E091B302F091B40212
:101190009083E091AF02F091B0021082E091B10231
:1011A000F091B20288E080831092BB02E091B70216
:1011B000F091B80286E08083E091B502F091B6022A
:1011C000808188698083E091B502F091B6028081C8
:1011D0008F7D80838CEF91E00E94C3038EED91E0C0
:1011E0000E94C303BB24B39440E2A42E55E4952E81
:1011F00004ED12E065EDE62E62E0F62E70EAC72EF1
:1012000076E8D72EE6E78E2E109255021092540201
:10121000109280021092A20210927E02B0927D0281
:101220001092760261E082E10E944F0261E083E168
:101230000E944F028091B9008E7F8093B900809107
:10124000B9008D7F8093B900A092B8009092BC0045
:101250001093280200932702F0922602E0922502C2
:10126000A092B800D092BC03C092BB038092BA0394
:101270008091BA03883708F0BDC3873709F0B4C33B
:10128000B0927F028093A102109280021092A2027B
:101290000E949E018111A8C383E70E945D06C0578A
:1012A000DF4F8883C059D0409091BA0391110EC08E
:1012B00084FF0CC08F7EC057DF4F8883C059D04059
:1012C000BE0160577F4F83E70E94B90480ED0E9402
:1012D0005D06813609F094C38E010F5F1F4F7801C0
:1012E00089E1D8011D928A95E9F7005C1F4F80E1E2
:1012F000F80111928A95E9F78091BA03882361F188
:1013000091E090937F028093A1021092800210924C
:10131000A20269E880E493E00E947F040E949E019B
:1013200069E18091BA030E94630580915402909113
:101330005502891B809301016701909101018C2D59
:101340008E19891708F079C080E493E00E943F0469
:10135000D6018D936D01F1CF8091BE0381111BC029
:1013600081E590E00E949B0160E08091BD030E94B6
:101370004F0289E80E94B2046701909101018C2D0F
:101380008E19891708F054C080E00E94B204F6015B
:1013900081936F01F2CF60E08091BD030E944F0204
:1013A00027E0C22ED12CAA24A394B12C60E0809116
:1013B000BE030E944F02B5010C2C01C0660F0A94B7
:1013C000EAF769788091BF030E944F0261E0809143
:1013D000BE030E944F02B1E0CB1AD10838F7570183
:1013E0008A2D8E19082E000C990B209101012817C7
:1013F0001906F1F0ECF0D12C98E0C92EDD0C60E07C
:101400008091BE030E944F0261E08091BE030E9462
:101410004F028091C0030E942602892B11F068942C
:10142000D0F8CA94C110EACFD501DD925D01D8CFC2
:1014300061E08091BD030E944F028091BA0388232E
:1014400061F191E090937F028093A102109280025B
:101450001092A20261EE80E493E00E947F040E9459
:101460009E0160E18091BA030E946305809154025D
:1014700090915502891B80930001680190910001B1
:101480008C2D801B891708F079C080E493E00E94BE
:101490003F04D6018D936D01F1CF8091BE03811180
:1014A0001BC081E590E00E949B0160E08091BD033C
:1014B0000E944F0281EE0E94B204680190910001E7
:1014C0008C2D801B891708F054C080E00E94B20464
:1014D000F60181936F01F2CF60E08091BD030E941D
:1014E0004F02B7E0CB2ED12CAA24A394B12C60E0FC
:1014F0008091BE030E944F02B5010C2C01C0660F03
:101500000A94EAF7617E8091BF030E944F0261E076
:101510008091BE030E944F02B1E0CB1AD10838F788
:1015200058018A2D801B082E000C990B2091000178
:1015300028171906F1F0ECF0D12CA8E0CA2EDD0C2A
:1015400060E08091BE030E944F0261E08091BE0383
:101550000E944F028091C0030E942602892B11F045
:101560006894D0F8CA94C110EACFD501DD925D012C
:10157000D8CF61E08091BD030E944F02D801189638
:101580008D919C9119979093D5038093D4038A8170
:101590009B819093DB038093DA038C818093CA0351
:1015A0008E819F819093D7038093D60388859985F8
:1015B0009093DD038093DC038A858093CB038C8535
:1015C0009D859093DF038093DE038E859F859093A6
:1015D000E1038093E00389898093CC038889809319
:1015E000CD038C899D899093E3038093E2038E89D8
:1015F0009F899093E5038093E403888D8093C203D1
:1016000011968C91119782958F7090E012962C9183
:10161000B0E12B9F90011124282B392B3093D1035B
:101620002093D003F8012081F0E12F9F9001112435
:10163000822B932B9093D3038093D203D8011396DC
:101640008C9113978093C40314968C911497809374
:10165000C50315968C9115978093C60316968C91A9
:1016600016978093C10317968C9117978093C703A1
:101670001C968C911C978093C8031A968D919C910F
:101680001B979093D9038093D8031D968C918093D8
:10169000C903CF57DF4F1882C158D040BE016F57E2
:1016A0007F4F82E00E94A605CF57DF4F8881C15847
:1016B000D040829583708093C303BE016F577F4FE4
:1016C00080E00E94A605CF57DF4F8881C158D040E7
:1016D0008093CE03BE016F577F4F84E00E94A60522
:1016E000CF57DF4F8881C158D04085958595859526
:1016F00085958093CF038091BA03811111C0C057A3
:10170000DF4F8881C059D0408061C057DF4F888348
:10171000C059D040BE0160577F4F83E70E94B90493
:1017200084E70E945D0681608983B70184E70E9497
:10173000B9048CE791E00E94C3030E946C0684E721
:101740000E945D068F71806A8983B70184E70E94D9
:10175000B9040E946C0682E70E945D06887F85605E
:101760008983B70182E70E94B9040E946C0684E76E
:101770000E945D06837E84618983B70184E70E94AD
:10178000B9048EE491E00E94C3030E946C0685E7D1
:101790000E945D06837E88608983B70185E70E9489
:1017A000B9048FE191E00E94C3030E946C0681E7B7
:1017B0000E945D06D82E1982B70180E70E94B90405
:1017C0002091D8033091D903032E000C440B550B04
:1017D0002756364A4D4F5F4FA0E4B1E00E94611A90
:1017E00024E130E040E050E00E949E1DCA01B901B2
:1017F000C2962AE030E040E050E00E949E1DA09199
:10180000C8030A2E000CBB0BA05FBC4F0E94BD1D7D
:101810004B015C01B594A794979487946091EA0377
:101820007091EB038091EC039091ED03E4E64E2E72
:10183000512C612C712CA30192010E949E1DA0913C
:10184000C4030A2E000CBB0B0E94BD1D28EE33E022
:1018500040E050E00E949E1D542F432F322F22273C
:10186000C501B401620F731F841F951F2091C3032C
:1018700030E02C5F3F4F032E000C440B550B0E94B1
:101880009E1DCA01B9013091CE0323E83203400105
:101890001124092C000CAA08BB08A50194014F5F74
:1018A0005F4F0E949E1D2A5F310941095109A2E242
:1018B000B0E00E94611A6E5C7F4F8F4F9F4FA30173
:1018C00092010E949E1DCF57DF4F2883C158D04000
:1018D000BE016F577F4F8AE50E94B90485E6D801A3
:1018E0008C931982B70180E70E94B904B80184E69D
:1018F0000E94B9048D2D80618983B70181E70E9420
:10190000B9048AEE90E00E94C303FE01EF57FF4F37
:10191000CF56DF4FF983E883C159D040A0903902F8
:10192000B0903A02C255DF4FB982A882CE5AD04059
:10193000C50169E170E00E94681D892B41F48AE5C8
:1019400092E00E94C30389E292E00E94C30380E414
:10195000E5E0F1E0DE01AF5BBF4F01900D928A95AB
:10196000E1F780E4E5E4F1E0DE01119601900D92EB
:101970008A95E1F70E946C068091BA03882309F4E6
:101980004AC091E090937F028093A102109280025E
:101990001092A2026DE180E493E00E947F040E9415
:1019A0009E016FE08091BA030E946305809154020A
:1019B00090915502891B809302018E010F571F4F92
:1019C00090910201802FCF56DF4FB880C159D0408F
:1019D0008B19891708F098C080E493E00E943F04B7
:1019E000D8018D938D01ECCF8091BA038F5F8093E6
:1019F000BA033ECC1092BA031092BC031092BB0300
:101A000088EA91E00E94C30368E873E180E090E017
:101A10000E94A202F9CB8091BE03811122C081E510
:101A200090E00E949B0160E08091BD030E944F0204
:101A30008DE90E94B2048E010F571F4F9091020151
:101A4000802FCF56DF4FB881C159D0408B1B8917EB
:101A500008F055C080E00E94B204F80181938F0124
:101A6000EDCF60E08091BD030E944F0207E010E0DF
:101A700060E08091BE030E944F0261E070E0002EA2
:101A800001C0660F0A94EAF76D798091BF030E9446
:101A90004F0261E08091BE030E944F020150110984
:101AA00038F7FE01EF57FF4F7F018E2DCF56DF4FE6
:101AB000F881C159D0408F1B082E000C990B209142
:101AC000020128171906D9F0D4F010E008E0110F30
:101AD00060E08091BE030E944F0261E08091BE03EE
:101AE0000E944F028091C0030E942602892B09F0B8
:101AF0001160015061F7D7011D937D01D6CF61E0E0
:101B00008091BD030E944F02CD57DF4F8881C3589B
:101B1000D04090E0B0E0A0E01CE0880F991FAA1F21
:101B2000BB1F1A95D1F7CC57DF4F4881C458D0401E
:101B300050E070E060E004E0440F551F661F771F1F
:101B40000A95D1F7842B952BA62BB72BCB57DF4FBC
:101B50004881C558D04050E070E060E024E07695C0
:101B60006795579547952A95D1F75C016D01A42A91
:101B7000B52AC62AD72AC055DF4FA882B982CA82A1
:101B8000DB82C05BD040C757DF4F48805980C958BF
:101B9000D040D42CC52CCC54DF4FD982C882C45B32
:101BA000D040C157DF4F4881CF58D040C257DF4F98
:101BB0002881CE58D04004E0209F90011124842F2A
:101BC00090E0B0E0A0E056E0B695A7959795879590
:101BD0005A95D1F7B901682B792BC354DF4F79831C
:101BE0006883CD5BD0404F70C154DF4F4883CF5BDB
:101BF000D040CA57DF4F4880C658D040512C712C76
:101C0000612C6CE0440C551C661C771C6A95D1F75E
:101C1000C957DF4F8881C758D04090E0B0E0A0E0BE
:101C200074E0880F991FAA1FBB1F7A95D1F7482A25
:101C3000592A6A2A7B2AC857DF4F8881C858D04062
:101C400090E0B0E0A0E0E4E0B695A7959795879581
:101C5000EA95D1F784299529A629B7292C013D01B8
:101C6000F3E07594679457944794FA95D1F780916F
:101C7000D4039091D503B0E0A0E0880F991FAA1F6C
:101C8000BB1F481A590A6A0A7B0A73016201FF0CDA
:101C9000CC08DC2C76019201A3016C2D7C2D8C2DBF
:101CA0009C2D01E00E94101F59016A017B018C01EB
:101CB0000E94C51D0CE00E94101FE090CA030E2C6C
:101CC000000CFF08000B110BE4E0EE0CFF1C001FE2
:101CD000111FEA95D1F757016801DD0CAA08BA2C4B
:101CE0006501CD56DF4FA882B982CA82DB82C35913
:101CF000D04057016801CD56DF4FE880C359D0402E
:101D0000FE2C0E2D1E2D0E94C51D0EE00E94101FE0
:101D100049015A016091DA037091DB03072E000C30
:101D2000880B990BA30192010E941D1E0BE00E94DB
:101D3000101FCD56DF4F2883C359D040CC56DF4FFC
:101D40003883C459D040CB56DF4F4883C559D04063
:101D5000CA56DF4F5883C659D040C956DF4F6883F3
:101D6000C759D040C856DF4F7883C859D040C756AE
:101D7000DF4F8883C959D040C656DF4F9883CA5970
:101D8000D040CD56DF4F088119812A813B81C3594C
:101D9000D040800E911EA21EB31E8092E603909248
:101DA000E703A092E803B092E903A5E0B0E0A50143
:101DB00094010E94611A60587F4F8F4F9F4F272FC9
:101DC000382F492F552747FD5A95CD56DF4F288389
:101DD00039834A835B83C359D040C901330FAA0BAF
:101DE000BB0B8093EA039093EB03A093EC03B093B7
:101DF000ED03B594A79497948794B501A4015A5F15
:101E000061097109C556DF4F488359836A837B8313
:101E1000CB59D0406A017B01FF0CCC08DC2C760149
:101E2000C556DF4F2881CB59D040C456DF4F38818B
:101E3000CC59D040C356DF4F4881CD59D040C2560F
:101E4000DF4F5881CE59D0406C2D7C2D8C2D9C2D90
:101E500002E00E94101F59016A017B018C010E945F
:101E6000C51D922E832E342E252EC955DF4F688333
:101E7000C75AD040C555DF4F7883CB5AD040C455A0
:101E8000DF4F8883CC5AD040C355DF4F9883CD5A5B
:101E9000D0400BE00E94101FA090CC031A2D110F10
:101EA000110BB12EC12ED12EE12EF12E012F0E9449
:101EB000C51D02E00E94101F59016A017B01782EA6
:101EC000192F6091E0037091E103072E000C880B3D
:101ED000990BC556DF4F288139814A815B81CB59E7
:101EE000D0400E941D1E01E00E94F71E072D0E9497
:101EF0002D1F02E00E94101FCA54DF4F2883C65BCB
:101F0000D040C954DF4F3883C75BD040C854DF4F3F
:101F10004883C85BD040C754DF4F5883C95BD0406B
:101F2000C654DF4F6883CA5BD040C554DF4F788307
:101F3000CB5BD040C454DF4F8883CC5BD040C054CF
:101F4000DF4F9883C05CD0404090CB03042C000C42
:101F500055086608770805E0440C551C661C771C7C
:101F60000A95D1F7C301B201990F660B762FCB0109
:101F7000CD55DF4F688379838A839B83C35AD040D2
:101F8000292D382D432D522DC955DF4F6881C75A51
:101F9000D040C555DF4F7881CB5AD040C455DF4F74
:101FA0008881CC5AD040C355DF4F9881CD5AD0405C
:101FB0000DE00E94101F59016A017B018C01920102
:101FC000A301CD55DF4F6881C35AD040762F862FAD
:101FD000962F0E94C51D03E00E94101F19012A01BF
:101FE0003B014C016091DC037091DD03072E000C76
:101FF000880B990BC556DF4F288139814A815B8157
:10200000CB59D0400E941D1E01E00E94101F5901B3
:102010006A017B018C019101A201B301C4010E94FC
:102020002D1F02E10E94101F30584F4F5F4F6F4F1E
:102030007F4F8F4F9F4F2090D6033090D703510191
:10204000C12CD12CE12CF12C00E010E00E94C51D28
:1020500029013A014B01F82FE92F80E090E0A0E13F
:10206000B0E0C055DF4FA880B980CA80DB80C05B7C
:10207000D0408A199B09AC09BD096C017D0100E0C3
:1020800010E09801C556DF4F8883CB59D040C45625
:10209000DF4FD882CC59D040C356DF4FA883CD59EB
:1020A000D040C256DF4FF882CE59D040C156DF4FE4
:1020B0000883CF59D040C056DF4F1883C05AD04054
:1020C000CF55DF4F2883C15AD040CE55DF4F3883DC
:1020D000C25AD0408091DE039091DF03092E000C9C
:1020E000AA0BBB0BDC01992788276C017D01FF0C33
:1020F000CC08DC2C76019C01AD016C2D7C2D8C2D47
:102100009C2DCA54DF4FA880C65BD040C954DF4F16
:10211000B880C75BD040C854DF4FC880C85BD04090
:10212000C754DF4FD880C95BD040C654DF4FE8802A
:10213000CA5BD040C554DF4FF880CB5BD040C4545D
:10214000DF4F0881CC5BD040C054DF4F1881C05CAA
:10215000D0400E942D1F0CE00E94101F59016A01FF
:102160007B018C01C556DF4F2881CB59D040C45626
:10217000DF4F3881CC59D040C356DF4F4881CD590D
:10218000D040C256DF4F5881CE59D04060E070E059
:1021900080E090E00E94361FA5E3BCE00E94611A37
:1021A0006B017C019201A301B4018F2F9E2F0FE0E0
:1021B0000E94101FC701B601C114D104E10400E45C
:1021C000F0060CF4EAC50E947C1D220F331F441F49
:1021D000551F2093EE033093EF034093F003509389
:1021E000F1032091EE033091EF034091F003509101
:1021F000F103C556DF4F288339834A835B83CB596C
:10220000D040CA01B901E3E0959587957795679528
:10221000EA95D1F7432E542E652E772467FC7A94E5
:102220009B01AC010E944C1D9B01AC01ADE055959A
:10223000479537952795AA95D1F7A091E403B091DA
:10224000E5030E94BD1D4B015C01BCE0B594A79461
:1022500097948794BA95D1F76B017C01FF0CCC0859
:10226000DC2C7601C556DF4F288139814A815B819C
:10227000CB59D04002E055954795379527950A955B
:10228000D1F7A091E203B091E3030E94BD1D8B0141
:102290009C014DE035952795179507954A95D1F7FF
:1022A000CD55DF4F088319832A833B83C35AD0401F
:1022B0009B01AC01550F220B322FA901C955DF4FED
:1022C000288339834A835B83C75AD0409401A50190
:1022D0006C2D7C2D8C2D9C2DCD55DF4FA880C35AA5
:1022E000D040CC55DF4FB880C45AD040CB55DF4FDB
:1022F000C880C55AD040CA55DF4FD880C65AD04092
:10230000C955DF4FE880C75AD040FE2C0E2D1E2D38
:102310000E942D1FB22EC32ED42E852E962EF72F5F
:10232000E82FA92EA3019201C301B2010E944C1D06
:102330009B01AC01C301B2010E944C1D9B01AC0189
:10234000A091C203B0E00E94611A7B018C01A1E15F
:1023500015950795F794E794AA95D1F72B013C01C1
:10236000770C4408542C32012B2D3C2D4D2D582D2B
:10237000692D7F2F8E2F9A2D57016801E42CF42CA4
:10238000042D142D0E942D1FE090CD030E2C000C67
:10239000FF08000B110BE7E0EE0CFF1C001F111FE4
:1023A000EA95D1F727013801770C4408542C320103
:1023B00057016801E42CF42C042D142D0E942D1FCC
:1023C00004E00E94101F49015A01C556DF4F4881A1
:1023D00059816A817B81CB59D040840E951EA61EFF
:1023E000B71E8092EE039092EF03A092F003B0929A
:1023F000F1036091C603062E000C770B880B990B36
:10240000CD56DF4F288139814A815B81C359D04045
:102410000E941D1EA4E6AA2EB12CC12CD12CE12CA9
:10242000F12C00E010E00E94591ECD56DF4F48808D
:1024300059806A807B80C359D040770C4408542C63
:102440003201CD56DF4FA880C359D040CC56DF4F64
:10245000B880C459D040CB56DF4FC880C559D04052
:10246000CA56DF4FD880C659D040E42CF42C042D36
:10247000142D0E94C51D06E00E94101F14E6A12E17
:10248000B12CC12CD12CE12CF12C00E010E00E94E9
:10249000591E322E432E542E652E762E872E982EC0
:1024A000292E6091C503062E000C770B880B990B23
:1024B000CD56DF4F288139814A815B81C359D04095
:1024C0000E941D1E0E94591E59016A017B018C0148
:1024D000232D342D452D562D672D782D892D922DA8
:1024E0000E942D1F305C4F4F5F4F6F4F7F4F8F4FBC
:1024F0009F4F2090D2033090D3035101C12CD12C97
:10250000E12CF12C00E010E00E94C51D0AE00E94C1
:10251000101F922E832E342E252ECD55DF4F68832B
:10252000C35AD040C955DF4F7883C75AD040C555EC
:10253000DF4F8883CB5AD040C455DF4F9883CC5AA5
:10254000D040CC54DF4F68817981C45BD0402B01EF
:10255000712C612C8091D0039091D103B0E0A0E068
:1025600004E0880F991FAA1FBB1F0A95D1F7481ACC
:10257000590A6A0A7B0AD301C201BB0F880B982F44
:10258000DC01C556DF4F88839983AA83BB83CB596F
:10259000D0406091C403062E000C770B880B990B7A
:1025A000CD56DF4F288139814A815B81C359D040A4
:1025B0000E941D1EE4E6AE2EB12C00E00E94591EC2
:1025C00001E00E94101F59016A017B018C019201F8
:1025D000A301C556DF4F6881CB59D040762F862F97
:1025E000962F0E94361F59016A017B018C01292D0B
:1025F000382D432D522DCD55DF4F6881C35AD04021
:10260000C955DF4F7881C75AD040C555DF4F888103
:10261000CB5AD040C455DF4F9881CC5AD0400E944D
:10262000C51DCA54DF4F2883C65BD040C954DF4F55
:102630003883C75BD040C854DF4F4883C85BD04065
:10264000C754DF4F5883C95BD0401B014C010EE0DB
:102650000E94101FC556DF4F2883CB59D040CD555F
:10266000DF4F3883C35AD040C955DF4F4883C75A1C
:10267000D040C555DF4F5883CB5AD040C455DF4FAB
:102680006883CC5AD040C355DF4F7883CD5AD040B1
:10269000C055DF4F8883C05BD040CC54DF4F988358
:1026A000C45BD0406091C703062E000C770B880BEB
:1026B000990BCD56DF4F288139814A815B81C359FF
:1026C000D0400E941D1EF4E6AF2EB12CC12CD12C9F
:1026D000E12CF12C00E010E00E94591EE090C103B3
:1026E000F12C10E000E0A7E0EE0CFF1C001F111F12
:1026F000AA95D1F727013801770C4408542C3201F0
:1027000057016801E42CF42C042D142D0E942D1F78
:1027100004E00E94101FCD56DF4F2883C359D040DC
:10272000C654DF4F3883CA5BD0402A013B01C554F1
:10273000DF4F8883CB5BD040C454DF4F9883CC5BA2
:10274000D040C556DF4FA880CB59D040CD55DF4F84
:10275000B880C35AD040C955DF4FC880C75AD0404F
:10276000C555DF4FD880CB5AD040C455DF4FE880E5
:10277000CC5AD040C355DF4FF880CD5AD040C05519
:10278000DF4F0881C05BD040CC54DF4F1881C45B61
:10279000D0409501A601B701C8010E94C51D0AE0FD
:1027A0000E94101F59016A017B018C01CD56DF4F39
:1027B0002881C359D040C654DF4F3881CA5BD0400E
:1027C000A201B301C554DF4F8881CB5BD040C45414
:1027D000DF4F9881CC5BD0400E94C51D01E00E9474
:1027E000101FCA54DF4FA880C65BD040C954DF4FCA
:1027F000B880C75BD040C854DF4FC880C85BD040AA
:10280000C754DF4FD880C95BD040710184010E945A
:102810002D1F0AE00E94101F18EEA12E03E0B02E1B
:10282000C12CD12CE12CF12C00E010E00E94C51D40
:102830000CE00E94101FC901DA01813AE6E89E0708
:10284000E1E0AE07B1050CF4AFC220EAA22E26E803
:10285000B22ECC24C394D12CA092F203B092F303F5
:10286000C092F403D092F5036091CF03062E000CC2
:10287000770B880B990B25E030E040E050E00E9498
:102880001D1E245C3A4F4F4F5F4F6F4F7F4F8F4F4E
:102890009F4FC154DF4FC880CF5BD04004E0C09E43
:1028A00060011124CD56DF4FD982C882C359D04070
:1028B000E1E4F0E0EC0FFD1FEC0DFD1DC080D180C8
:1028C000E280F38056016701E12CF12C00E010E07A
:1028D0000E94C51D00E10E94101F522E632E742E0F
:1028E000852EB62FA72FC455DF4F8883CC5AD040F2
:1028F000C355DF4F9883CD5AD040C354DF4F288152
:102900003981CD5BD04040E050E060E070E080E095
:1029100090E00FE00E94F71E515061097109810992
:102920009109A52CB62CC72CD82CEB2EFA2EC45509
:10293000DF4F0881CC5AD040C355DF4F1881CD5AA4
:10294000D0400E942D1F922E432E342E252EC55688
:10295000DF4F6883CB59D040CD55DF4F7883C35AC2
:10296000D040C955DF4F8883C75AD040C555DF4F87
:102970009883CB5AD04081E090E08C0F9D1FCD56BC
:10298000DF4F48815981C359D040840F951FFC0106
:1029900040815181628173815A016B01E12CF12CDC
:1029A0008701CD56DF4F4883C359D040CC56DF4F07
:1029B000B882C459D040CB56DF4F6883C559D04048
:1029C000CA56DF4FD882C659D040C956DF4FE88279
:1029D000C759D040C856DF4FF882C859D040C756B3
:1029E000DF4F0883C959D040C656DF4F1883CA59F4
:1029F000D040A52CB62CC72CD82CEB2EFA2EC455C3
:102A0000DF4F0881CC5AD040C355DF4F1881CD5AD3
:102A1000D040CD56DF4F2881C359D040CC56DF4F30
:102A20003881C459D040CB56DF4F4881C559D0407A
:102A3000CA56DF4F5881C659D04060E070E080E050
:102A400090E00E94C51D09E00E94101F522E632EC7
:102A5000742E852EB62FA72FF82FE92F292D342D70
:102A6000432D522DC556DF4F6881CB59D040CD55EF
:102A7000DF4F7881C35AD040C955DF4F8881C75A8C
:102A8000D040C555DF4F9881CB5AD04001E00E941D
:102A9000101F59016A017B018C01252D362D472D10
:102AA000582D6B2F7A2F8F2F9E2F0E942D1FA92C10
:102AB000B42CC32CD22CC556DF4FE880CB59D04064
:102AC000CD55DF4FF880C35AD040C955DF4F08813C
:102AD000C75AD040C555DF4F1881CB5AD0400E940D
:102AE000591E2093F6033093F7034093F803509355
:102AF000F90384E70E945D068160C057DF4F888339
:102B0000C059D040BE0160577F4F84E70E94B9048E
:102B10006091EA037091EB038091EC039091ED03D7
:102B20006093350270933602809337029093380297
:102B30000091F2031091F3032091F4033091F50317
:102B40000093310210933202209333023093340207
:102B50000091EE031091EF032091F0033091F10307
:102B600000932D0210932E0220932F0230933002F7
:102B70000091F6031091F7032091F8033091F903C7
:102B80000093290210932A0220932B0230932C02E7
:102B9000C255DF4F28813981CE5AD0402F5F3F4F39
:102BA00030933A0220933902C255DF4FC880D98052
:102BB000CE5AD040CD2809F4E0C024E630E040E011
:102BC00050E00E949E1D1F926F93022E000C330B4B
:102BD0003F932F93C255DF4F88819981CE5AD040C1
:102BE0006FE077E20E94681D9F938F9389EAE82E39
:102BF00081E0F82EFF92EF9224E432E03F932F938E
:102C00000E94451F0E94720660913102709132024B
:102C1000809133029091340228EE33E040E050E09E
:102C20000E949E1D7F936F93022E000C330B3F93E7
:102C30002F9386EB91E09F938F9364E472E07F93F0
:102C40006F930E94451F0E94720660912D02709141
:102C50002E0280912F029091300224E630E040E075
:102C600050E00E949E1D1F926F933F932F938FEB16
:102C700091E09F938F93A4E4B2E0BF93AF930E943F
:102C8000451F0E94720660912D0270912E02809164
:102C90002F02909130020E94681920E030E048EC49
:102CA00052E40E941F1B20E030E54DE754E40E94EF
:102CB0001F1B21E03EED42E45EE30E94C71B9B0127
:102CC000AC0160E070E080E89FE30E94B21A20E06F
:102CD0003AE24DE257E40E94A3196B017C0120E027
:102CE00030E048EC52E40E94A3190E94981B862F02
:102CF00064E60E945C1D1F929F93C701B6010E946B
:102D0000911B7F936F9388EC91E09F938F9394E452
:102D1000A92E92E0B92EBF92AF920E94451F0FB626
:102D2000F894DEBF0FBECDBF0E94720660912902EB
:102D300070912A0280912B0290912C0224E630E0BF
:102D400040E050E00E949E1D1F926F933F932F938F
:102D500081ED91E09F938F93BF92AF920E94451FA8
:102D60000E94720660E177E280E090E00E94A20299
:102D70000FB6F894DEBF0FBECDBF80E090E0892B88
:102D800011F40C948E0C0E944003882311F40C94CF
:102D90008E0C0E9400000C948E0C660F771F881F0B
:102DA000991F0E947C1D15CAB7FD09C08093F203CC
:102DB0009093F303A093F403B093F50355CD1092D1
:102DC000F2031092F3031092F4031092F5034CCD2A
:102DD000ABE0B0E0EEEEF6E10C946C1A7C013B0146
:102DE0008A01FC0117821682838181FFC8C1CE014E
:102DF00001965C01F7019381F30193FD859193FFA7
:102E000081913F01882309F453C1853239F493FD40
:102E1000859193FF81913F01853229F4B70190E0BC
:102E20000E94D818E7CF912C212C312CFFE1F3150B
:102E300038F08B3211F190F4803209F1833229F1AC
:102E400037FC3CC020ED280F2A3050F536FE20C05C
:102E50008AE0989E200D1124922E06C08D3291F0AA
:102E6000803371F7689430F8F30193FD859193FFF7
:102E700081913F018111DACF21C0689431F86894C3
:102E800032F8F2CF689433F8EFCF689434F8ECCF8F
:102E9000EAE02E9E200D1124222E689435F8E4CF0E
:102EA0008E3229F436FC04C1689436F8DDCF8C36B6
:102EB00019F4689437F8D8CF8836B1F2982F9F7DEF
:102EC00095549330E0F08336A1F18337C1F1833517
:102ED00009F063C02801F2E04F0E511CF801C080D8
:102EE000D180692D70E036FC02C06FEF7FEFC60124
:102EF0000E94C2184C01689437F882010AC00C5F26
:102F00001F4FFFE3F98388248394912C6501E89493
:102F100037F833FE2DC0522C8114910471F55520E1
:102F200009F468CFB70180E290E00E94D8185A9463
:102F3000F6CFF801808189830E5F1F4FE4CF28010F
:102F4000F2E04F0E511CF801C080D180692D70E075
:102F500036FC02C06FEF7FEFC6010E94CD184C0116
:102F60008201D5CFB70180E290E00E94D8182A9460
:102F70002814190409F0B0F7CECFF60137FC85917B
:102F800037FE81916F01B70190E00E94D81851106F
:102F90005A94F1E08F1A9108BFCF843619F0893620
:102FA00009F077C0F80137FE6BC0608171818281C2
:102FB00093810C5F1F4FF32DFF763F2E97FF09C0C3
:102FC00090958095709561957F4F8F4F9F4F689436
:102FD00037F82AE030E0A5010E940819C82ECA1867
:102FE0008C2C432C36FE0CC0E89440F8C91440F4F5
:102FF00034FE05C032FC03C0F32DFE7E4F2E892C1B
:1030000044FE95C0FE01EC0DF11D8081803309F076
:1030100087C0242D297E422E842D8870582E43FC93
:1030200095C040FE8FC09C2C821418F42C0C922C5E
:10303000981844FE91C0B70180E390E00E94D81830
:1030400042FE09C088E790E041FE02C088E590E0BA
:10305000B7010E94D818C91408F48AC0CA94D12CA8
:103060009FEFC91AD90ACA0CDB1CF60182916F01C5
:10307000B70190E00E94D818AC14BD04B1F74FCF4F
:1030800060817181072E000C880B990B0E5F1F4F1A
:1030900092CFD32CE894D4F82AE030E0853739F188
:1030A000232D297FD22E8F3601F148F48835A9F0DF
:1030B000F701868197812B96E2E10C94881A80377C
:1030C00049F08837A9F7D4FE02C06894D2F820E10D
:1030D00030E00DC06894D4F8F6CF34FE03C0822FE0
:1030E0008660D82E20E132E002C028E030E0F8010E
:1030F000D7FE0FC060817181828193810C5F1F4F69
:10310000A5010E940819C82ECA183D2CE89437F86A
:1031100067CF6081718190E080E00E5F1F4FF0CF3C
:1031200042FC02C0839478CF8394839475CF842D1E
:10313000867809F471CFF6CFB70180E290E00E9463
:10314000D81883948214C0F3512C73CF522C581882
:10315000821408F46ECFF8CF842D867809F47BCFE3
:103160008BE241FE80E247FC8DE2B70190E071CF37
:10317000B70180E390E00E94D8189A946CCF8FEF4B
:103180009FEF99CFFC010590615070400110D8F776
:10319000809590958E0F9F1F0895FC01615070409F
:1031A00001900110D8F7809590958E0F9F1F08957C
:1031B0000F931F93CF93DF93182F092FEB018B8170
:1031C00081FD09C01FEF0FEF812F902FDF91CF916D
:1031D0001F910F91089582FF14C02E813F818C8131
:1031E0009D81281739073CF4E881F981CF010196C8
:1031F0009983888310838E819F8101969F838E831C
:10320000E3CFE885F985812F0995892BA1F3DACFE2
:10321000FA01AA27283051F1203181F1E8946F9307
:103220006E7F6E5F7F4F8F4F9F4FAF4FB1E03ED0AD
:10323000B4E03CD0670F781F891F9A1FA11D680F4B
:10324000791F8A1F911DA11D6A0F711D811D911D7E
:10325000A11D20D009F468943F912AE0269F1124F3
:103260003019305D3193DEF6CF010895462F477057
:10327000405D4193B3E00FD0C9F7F6CF462F4F70B2
:10328000405D4A3318F0495D31FD4052419302D010
:10329000A9F7EACFB4E0A6959795879577956795B6
:1032A000BA95C9F700976105710508959B01AC01B6
:1032B0000A2E06945795479537952795BA95C9F7DD
:1032C000620F731F841F951FA01D0895E89409C005
:1032D00097FB3EF490958095709561957F4F8F4F49
:1032E0009F4F9923A9F0F92F96E9BB279395F6955F
:1032F000879577956795B795F111F8CFFAF4BB0FDD
:1033000011F460FF1BC06F5F7F4F8F4F9F4F16C040
:10331000882311F096E911C0772321F09EE8872FCA
:10332000762F05C0662371F096E8862F70E060E086
:103330002AF09A95660F771F881FDAF7880F9695FF
:10334000879597F908950E94B6190C94271A0E9440
:10335000191A38F00E94201A20F0952311F00C94CD
:10336000101A0C94161A11240C945B1A0E94381A25
:1033700070F3959FC1F3950F50E0551F629FF001C8
:10338000729FBB27F00DB11D639FAA27F00DB11DE1
:10339000AA1F649F6627B00DA11D661F829F22276A
:1033A000B00DA11D621F739FB00DA11D621F839FF1
:1033B000A00D611D221F749F3327A00D611D231FC7
:1033C000849F600D211D822F762F6A2F11249F5715
:1033D00050409AF0F1F088234AF0EE0FFF1FBB1F18
:1033E000661F771F881F91505040A9F79E3F5105D7
:1033F00080F00C94101A0C945B1A5F3FE4F3983E33
:10340000D4F3869577956795B795F795E7959F5F80
:10341000C1F7FE2B880F911D9695879597F9089512
:1034200097F99F6780E870E060E008959FEF80EC77
:10343000089500240A94161617061806090608951A
:1034400000240A9412161306140605060895092E80
:103450000394000C11F4882352F0BB0F40F4BF2BEF
:1034600011F460FF04C06F5F7F4F8F4F9F4F08952F
:1034700057FD9058440F551F59F05F3F71F0479525
:10348000880F97FB991F61F09F3F79F0879508950A
:10349000121613061406551FF2CF4695F1DF08C029
:1034A000161617061806991FF1CF86957105610546
:1034B00008940895E894BB2766277727CB0197F9EE
:1034C00008950E94A31AA59F900DB49F900DA49FEC
:1034D000800D911D112408952F923F924F925F927B
:1034E0006F927F928F929F92AF92BF92CF92DF9214
:1034F000EF92FF920F931F93CF93DF93CDB7DEB779
:10350000CA1BDB0B0FB6F894DEBF0FBECDBF09940C
:103510002A88398848885F846E847D848C849B8463
:10352000AA84B984C884DF80EE80FD800C811B8171
:10353000AA81B981CE0FD11D0FB6F894DEBF0FBEA0
:10354000CDBFED010895A29FB001B39FC001A39F1D
:10355000700D811D1124911DB29F700D811D1124CC
:10356000911D08955058BB27AA270E94CA1A0C948F
:10357000271A0E94191A38F00E94201A20F039F4F4
:103580009F3F19F426F40C94161A0EF4E095E7FB0D
:103590000C94101AE92F0E94381A58F3BA176207D0
:1035A00073078407950720F079F4A6F50C945A1A4E
:1035B0000EF4E0950B2EBA2FA02D0B01B90190014E
:1035C0000C01CA01A0011124FF27591B99F0593F92
:1035D00050F4503E68F11A16F040A22F232F342FDA
:1035E0004427585FF3CF469537952795A795F04028
:1035F0005395C9F77EF41F16BA0B620B730B840B3D
:10360000BAF09150A1F0FF0FBB1F661F771F881FF4
:10361000C2F70EC0BA0F621F731F841F48F487954C
:1036200077956795B795F7959E3F08F0B0CF93953E
:10363000880F08F09927EE0F9795879508950E94B7
:10364000331B0C94271A0E94201A58F00E94191A52
:1036500040F029F45F3F29F00C94101A51110C949A
:103660005B1A0C94161A0E94381A68F39923B1F366
:10367000552391F3951B550BBB27AA276217730798
:10368000840738F09F5F5F4F220F331F441FAA1F2C
:10369000A9F335D00E2E3AF0E0E832D091505040E8
:1036A000E695001CCAF72BD0FE2F29D0660F771F96
:1036B000881FBB1F261737074807AB07B0E809F07C
:1036C000BB0B802DBF01FF2793585F4F3AF09E3F01
:1036D000510578F00C94101A0C945B1A5F3FE4F3D8
:1036E000983ED4F3869577956795B795F7959F5F44
:1036F000C9F7880F911D9695879597F90895E1E090
:10370000660F771F881FBB1F621773078407BA07EE
:1037100020F0621B730B840BBA0BEE1F88F7E09549
:1037200008950E94981B6894B1110C945B1A089537
:103730000E94401A88F09F5798F0B92F9927B751E7
:10374000B0F0E1F0660F771F881F991F1AF0BA9545
:10375000C9F714C0B13091F00E945A1AB1E008952F
:103760000C945A1A672F782F8827B85F39F0B93F21
:10377000CCF3869577956795B395D9F73EF49095F8
:103780008095709561957F4F8F4F9F4F0895FA01F7
:10379000EE0FFF1F309621053105A1F1611571056E
:1037A00061F48038BFE39B0749F168949038810544
:1037B00061F08038BFEF9B0741F099234AF5FF3F46
:1037C000E1053105210519F1E8940894E795D9013F
:1037D000AA2329F4AB2FBE2FF85FD0F310C0FF5FF0
:1037E00070F4A695E0F7F73950F019F0FF3A38F485
:1037F0009F779F930DD00F9007FC9058089546F047
:103800000C94161A60E070E080E89FE308954FE79B
:103810009F775F934F933F932F930E94C21C2F91EA
:103820003F914F915F910E94A3190C941F1C29F4A2
:1038300016F00C94101A0C945A1A0C94161A0E9432
:10384000401AA8F39638A0F707F80F92E8942BE3F4
:103850003AEA48EB5FE70E94B9190F920F920F9274
:103860004DB75EB70F920E940A1DE8E6F0E00E9495
:10387000511C4F915F91EF91FF91E595EE1FFF1F56
:1038800049F0FE57E0684427EE0F441FFA95E1F730
:103890004195550B0E94841C0F9007FE0C94781CD8
:1038A0000895DF93CF931F930F93FF92EF92DF92D0
:1038B0007B018C01689406C0DA2EEF010E94B619D4
:1038C000FE01E894A5912591359145915591A6F376
:1038D000EF010E94CA1AFE019701A801DA9469F764
:1038E000DF90EF90FF900F911F91CF91DF9108959E
:1038F0009B01AC0160E070E080E89FE30C941F1B2B
:103900000C94101A0C943E1D0E94401AD8F399236F
:10391000C9F3940F511DA3F39150504094F059F006
:10392000882332F0660F771F881F91505040C1F7EF
:103930009E3F51052CF7880F911D9695879597F915
:1039400008955F3FACF0983E9CF0BB278695779535
:103950006795B79508F4B1609395C1F7BB0F58F719
:1039600011F460FFE8CF6F5F7F4F8F4F9F4FE3CF22
:103970000C945B1A16F00C943E1D0C94161A689465
:103980000C94101A0E94401AA8F39923C1F3AEF3C5
:10399000DF93CF931F930F93FF92C92FDD278823C7
:1039A0002AF02197660F771F881FDAF720E030E0B2
:1039B00040E85FEB9FE3883920F0803E38F02196A5
:1039C0008F770E94B31AE0E9F0E004C00E94B31AB6
:1039D000EDEBF0E00E94511C8B01BE01EC01FB2ECF
:1039E0006F5771097595771F880B990B0E9468199D
:1039F00028E132E741E35FE30E94B619AF2D980159
:103A0000AE01FF900F911F91CF91DF910E94CA1AD2
:103A10000C94271AFA01DC01AA0FBB1F9B01AC0111
:103A2000BF5728F4222733274427507820C0B751A6
:103A300090F4AB2F0024469537952795011CA3954C
:103A4000D2F3002071F0220F331F441FB395DAF335
:103A50000ED00C94B21A61307105A0E88A07B946FD
:103A600030F49B01AC016627772788279078309641
:103A700021F0208331834283538308959F3F31F0A7
:103A8000915020F4879577956795B795880F911D8C
:103A90009695879597F90895DB018F939F930E94E0
:103AA000611ABF91AF91A29F800D911DA39F900DB0
:103AB000B29F900D11240895991B79E004C0991FBD
:103AC000961708F0961B881F7A95C9F78095089578
:103AD000AA1BBB1B51E107C0AA1FBB1FA617B70734
:103AE00010F0A61BB70B881F991F5A95A9F7809550
:103AF0009095BC01CD010895A1E21A2EAA1BBB1B13
:103B0000FD010DC0AA1FBB1FEE1FFF1FA217B307A9
:103B1000E407F50720F0A21BB30BE40BF50B661FBF
:103B2000771F881F991F1A9469F760957095809583
:103B300090959B01AC01BD01CF010895052E97FB27
:103B40001EF400940E94B51D57FD07D00E947C1DF5
:103B500007FC03D04EF40C94B51D5095409530955C
:103B600021953F4F4F4F5F4F0895909580957095E9
:103B700061957F4F8F4F9F4F0895B7FF0C94611A47
:103B80000E94611A821B930B0895DF93CF931F93BA
:103B90000F939A9DF02D219FF00D8B9DF00D8A9D26
:103BA000E02DF10D039FF00D029FE00DF11D4E9DE4
:103BB000E00DF11D5E9DF00D4F9DF00D7F936F9315
:103BC000BF92AF925F934F93D5010E94A31A8B01CE
:103BD000AC01D7010E94A31AEB01E80FF91FD6012F
:103BE0000E94141E2F913F91D6010E94A31AC60F66
:103BF000D71FE81FF91FAF91BF910E94141E2F918C
:103C00003F910E94A31AC60FD71FE81FF91FD601C4
:103C10000E94A31AE60FF71F9801BE01CF010F9172
:103C20001F91CF91DF9108950E94A31A460F571F4D
:103C3000C81FD91F08F43196089597FB57FF0C94BD
:103C40002D1E9F938F930E942D1E6E1B7F0BAF9195
:103C5000BF918A0B9B0B0895E894DF93CF93FC01EF
:103C6000DB010E94A31A7F936F93E9019A01AC01D3
:103C7000BF93AF933F932F93DF010E94A31A26F4C3
:103C80006C1B7D0B820B930B9E01EB01FC010E94D0
:103C9000141EAF91BF912F913F910E94141EBE013F
:103CA000CF01F9012F913F91CF91DF910895689451
:103CB00001C0E894F92FF12B12F00C948B1EA0E0B8
:103CC000B0E0E5E6FEE10C94721A092E059422F4A8
:103CD0000E94E71E112392F4F0E80F26FFEFE09414
:103CE000F09400951095B094C094D094A194BF0A1C
:103CF000CF0ADF0AEF0AFF0A0F0B1F0B0E94961E66
:103D000007FC0E94E71ECDB7DEB7ECE00C948E1ADC
:103D1000689401C0E8948F929F92CF93DF930E94A2
:103D2000961EDF91CF919F908F90089588249924BB
:103D3000F401E401B0E49F93AA279A158B049C0434
:103D4000ED05FE05CF05D007A10798F4AD2FDC2FB8
:103D5000CF2FFE2FE92D982C892E982F872F762F85
:103D6000652F542F432F322F2227B85031F7BF91A0
:103D700027C01B2EBF91BB27220F331F441F551F87
:103D8000661F771F881F991F881C991CEE1FFF1F35
:103D9000CC1FDD1FAA1FBB1F8A149B04EC05FD0569
:103DA000CE05DF05A007B10748F08A189B08EC098B
:103DB000FD09CE09DF09A00BB10B21601A94E1F6D1
:103DC0002EF49401AF01BE01CD01000C0895609561
:103DD00070958095909530954095509521953F4FE1
:103DE0004F4F5F4F6F4F7F4F8F4F9F4F0895002E64
:103DF000083090F0982F872F762F652F542F432F60
:103E0000322F22270850F4CF220F331F441F551F93
:103E1000661F771F881F991F0A95B2F7002D089516
:103E200097FD1094002E083098F00850232F342F5F
:103E3000452F562F672F782F892F912DF4CF15946A
:103E400097958795779567955795479537952795D2
:103E50000A95AAF71124002D08952A0D3B1D4C1D2B
:103E60005D1D6E1D7F1D801F911F08952A193B093E
:103E70004C095D096E097F09800B910B0895EE0FC7
:103E8000FF1F0590F491E02D0994AEE0B0E0EBE463
:103E9000FFE10C947A1A0D891E8986E08C831A83BF
:103EA00009838FEF9FE79E838D83AE01475E5F4F4F
:103EB0006F89788DCE0101960E94E8162F81388592
:103EC000020F131FF80110822E96E4E00C94961A4C
:043ED000F894FFCF94
:103ED40010190F0101FFFFFF7FFFFFFF7FFFFFFFAF
:103EE4007FFFFFFF7FFFFFFF7FEA51B87EFFFFFFE9
:103EF4007F21DBF97EFFFFFF7FFFFFFF7FC776BED9
:103F04007FF4285C7FFFFFFF7FEA51B87EFFFFFF4D
:103F14007FFFFFFF7F000024F40000127A000009F5
:103F24003D0080841EFF583E0F548C93070090D0B0
:103F3400031038EC019062F40000127A0000093D8D
:103F44000080841E0040420F0020A1070090D0038F
:103F54000048E80100000000007603D6020303DEF7
:103F640003340312032603000000007F045204AE4E
:103F7400042F04F6013F04300425346420253364FF
:103F84002E25303264002533642E25303364002519
:103F940037642E25303264002535642E2530326492
:0C3FA400002534642E253032640A000031
:00000001FF
